{
  "_format": "hh-sol-artifact-1",
  "contractName": "RandomTrade",
  "sourceName": "contracts/RandomTrade.sol",
  "abi": [
    {
      "inputs": [
        {
          "internalType": "address",
          "name": "_usdc",
          "type": "address"
        },
        {
          "internalType": "address[]",
          "name": "tradeGateways",
          "type": "address[]"
        }
      ],
      "stateMutability": "payable",
      "type": "constructor"
    },
    {
      "anonymous": false,
      "inputs": [
        {
          "indexed": false,
          "internalType": "address",
          "name": "token",
          "type": "address"
        },
        {
          "indexed": false,
          "internalType": "uint256",
          "name": "amount",
          "type": "uint256"
        }
      ],
      "name": "ExecutedTrade",
      "type": "event"
    },
    {
      "inputs": [
        {
          "internalType": "uint256",
          "name": "entropy",
          "type": "uint256"
        },
        {
          "components": [
            {
              "internalType": "address",
              "name": "to",
              "type": "address"
            },
            {
              "internalType": "bytes",
              "name": "data",
              "type": "bytes"
            },
            {
              "internalType": "address",
              "name": "outputToken",
              "type": "address"
            },
            {
              "internalType": "uint256",
              "name": "amount",
              "type": "uint256"
            }
          ],
          "internalType": "struct Trade[]",
          "name": "trades",
          "type": "tuple[]"
        }
      ],
      "name": "executeRandomTrade",
      "outputs": [],
      "stateMutability": "nonpayable",
      "type": "function"
    },
    {
      "inputs": [],
      "name": "owner",
      "outputs": [
        {
          "internalType": "address payable",
          "name": "",
          "type": "address"
        }
      ],
      "stateMutability": "view",
      "type": "function"
    }
  ],
  "bytecode": "0x6080604052604051620012983803806200129883398181016040528101906200002991906200039f565b81600160006101000a81548173ffffffffffffffffffffffffffffffffffffffff021916908373ffffffffffffffffffffffffffffffffffffffff160217905550336000806101000a81548173ffffffffffffffffffffffffffffffffffffffff021916908373ffffffffffffffffffffffffffffffffffffffff16021790555060005b8151811015620001a857600160009054906101000a900473ffffffffffffffffffffffffffffffffffffffff1673ffffffffffffffffffffffffffffffffffffffff1663095ea7b38383815181106200010b576200010a62000405565b5b60200260200101517fffffffffffffffffffffffffffffffffffffffffffffffffffffffffffffffff6040518363ffffffff1660e01b81526004016200015392919062000460565b6020604051808303816000875af115801562000173573d6000803e3d6000fd5b505050506040513d601f19601f82011682018060405250810190620001999190620004ca565b508080600101915050620000ad565b505050620004fc565b6000604051905090565b600080fd5b600080fd5b600073ffffffffffffffffffffffffffffffffffffffff82169050919050565b6000620001f282620001c5565b9050919050565b6200020481620001e5565b81146200021057600080fd5b50565b6000815190506200022481620001f9565b92915050565b600080fd5b6000601f19601f8301169050919050565b7f4e487b7100000000000000000000000000000000000000000000000000000000600052604160045260246000fd5b6200027a826200022f565b810181811067ffffffffffffffff821117156200029c576200029b62000240565b5b80604052505050565b6000620002b1620001b1565b9050620002bf82826200026f565b919050565b600067ffffffffffffffff821115620002e257620002e162000240565b5b602082029050602081019050919050565b600080fd5b60006200030f6200030984620002c4565b620002a5565b90508083825260208201905060208402830185811115620003355762000334620002f3565b5b835b818110156200036257806200034d888262000213565b84526020840193505060208101905062000337565b5050509392505050565b600082601f8301126200038457620003836200022a565b5b815162000396848260208601620002f8565b91505092915050565b60008060408385031215620003b957620003b8620001bb565b5b6000620003c98582860162000213565b925050602083015167ffffffffffffffff811115620003ed57620003ec620001c0565b5b620003fb858286016200036c565b9150509250929050565b7f4e487b7100000000000000000000000000000000000000000000000000000000600052603260045260246000fd5b6200043f81620001e5565b82525050565b6000819050919050565b6200045a8162000445565b82525050565b600060408201905062000477600083018562000434565b6200048660208301846200044f565b9392505050565b60008115159050919050565b620004a4816200048d565b8114620004b057600080fd5b50565b600081519050620004c48162000499565b92915050565b600060208284031215620004e357620004e2620001bb565b5b6000620004f384828501620004b3565b91505092915050565b610d8c806200050c6000396000f3fe608060405234801561001057600080fd5b50600436106100365760003560e01c80638da5cb5b1461003b578063e9fc183614610059575b600080fd5b610043610075565b60405161005091906105ee565b60405180910390f35b610073600480360381019061006e91906106b8565b610099565b005b60008054906101000a900473ffffffffffffffffffffffffffffffffffffffff1681565b60006100aa8444188484905061039d565b9050600083838360ff168181106100c4576100c3610718565b5b90506020028101906100d6919061074c565b6100df90610991565b9050600160009054906101000a900473ffffffffffffffffffffffffffffffffffffffff1673ffffffffffffffffffffffffffffffffffffffff166323b872dd333084606001516040518463ffffffff1660e01b8152600401610144939291906109c2565b6020604051808303816000875af1158015610163573d6000803e3d6000fd5b505050506040513d601f19601f820116820180604052508101906101879190610a31565b50600080826000015173ffffffffffffffffffffffffffffffffffffffff1683602001516040516101b89190610acf565b6000604051808303816000865af19150503d80600081146101f5576040519150601f19603f3d011682016040523d82523d6000602084013e6101fa565b606091505b509150915060008215610311576000846040015190508073ffffffffffffffffffffffffffffffffffffffff166370a08231306040518263ffffffff1660e01b81526004016102499190610ae6565b602060405180830381865afa158015610266573d6000803e3d6000fd5b505050506040513d601f19601f8201168201806040525081019061028a9190610b16565b91508073ffffffffffffffffffffffffffffffffffffffff1663a9059cbb33846040518363ffffffff1660e01b81526004016102c7929190610b43565b6020604051808303816000875af11580156102e6573d6000803e3d6000fd5b505050506040513d601f19601f8201168201806040525081019061030a9190610a31565b5050610356565b61031a82610542565b6040517f08c379a000000000000000000000000000000000000000000000000000000000815260040161034d9190610bc1565b60405180910390fd5b7f3d87a323054b90e2163b224b125584059998cf08b58a26a80dc27588db3004ba84604001518260405161038b929190610b43565b60405180910390a15050505050505050565b6000808260ff1667ffffffffffffffff8111156103bd576103bc61078a565b5b6040519080825280602002602001820160405280156103eb5781602001602082028036833780820191505090505b50905060005b8360ff168160ff1610156104375780828260ff168151811061041657610415610718565b5b602002602001019060ff16908160ff168152505080806001019150506103f1565b5060005b8360ff1681101561051c5760008460ff16868360405160200161045f929190610be3565b6040516020818303038152906040528051906020012060001c6104829190610c3b565b9050600083838151811061049957610498610718565b5b602002602001015190508382815181106104b6576104b5610718565b5b60200260200101518484815181106104d1576104d0610718565b5b602002602001019060ff16908160ff1681525050808483815181106104f9576104f8610718565b5b602002602001019060ff16908160ff16815250505050808060010191505061043b565b508060008151811061053157610530610718565b5b602002602001015191505092915050565b606060448251101561058b576040518060400160405280601d81526020017f5472616e73616374696f6e2072657665727465642073696c656e746c7900000081525090506105a8565b600482019150818060200190518101906105a59190610d0d565b90505b919050565b600073ffffffffffffffffffffffffffffffffffffffff82169050919050565b60006105d8826105ad565b9050919050565b6105e8816105cd565b82525050565b600060208201905061060360008301846105df565b92915050565b6000604051905090565b600080fd5b600080fd5b6000819050919050565b6106308161061d565b811461063b57600080fd5b50565b60008135905061064d81610627565b92915050565b600080fd5b600080fd5b600080fd5b60008083601f84011261067857610677610653565b5b8235905067ffffffffffffffff81111561069557610694610658565b5b6020830191508360208202830111156106b1576106b061065d565b5b9250929050565b6000806000604084860312156106d1576106d0610613565b5b60006106df8682870161063e565b935050602084013567ffffffffffffffff811115610700576106ff610618565b5b61070c86828701610662565b92509250509250925092565b7f4e487b7100000000000000000000000000000000000000000000000000000000600052603260045260246000fd5b600080fd5b60008235600160800383360303811261076857610767610747565b5b80830191505092915050565b600080fd5b6000601f19601f8301169050919050565b7f4e487b7100000000000000000000000000000000000000000000000000000000600052604160045260246000fd5b6107c282610779565b810181811067ffffffffffffffff821117156107e1576107e061078a565b5b80604052505050565b60006107f4610609565b905061080082826107b9565b919050565b600080fd5b6000610815826105ad565b9050919050565b6108258161080a565b811461083057600080fd5b50565b6000813590506108428161081c565b92915050565b600080fd5b600067ffffffffffffffff8211156108685761086761078a565b5b61087182610779565b9050602081019050919050565b82818337600083830152505050565b60006108a061089b8461084d565b6107ea565b9050828152602081018484840111156108bc576108bb610848565b5b6108c784828561087e565b509392505050565b600082601f8301126108e4576108e3610653565b5b81356108f484826020860161088d565b91505092915050565b60006080828403121561091357610912610774565b5b61091d60806107ea565b9050600061092d84828501610833565b600083015250602082013567ffffffffffffffff81111561095157610950610805565b5b61095d848285016108cf565b602083015250604061097184828501610833565b60408301525060606109858482850161063e565b60608301525092915050565b600061099d36836108fd565b9050919050565b6109ad8161080a565b82525050565b6109bc8161061d565b82525050565b60006060820190506109d760008301866109a4565b6109e460208301856109a4565b6109f160408301846109b3565b949350505050565b60008115159050919050565b610a0e816109f9565b8114610a1957600080fd5b50565b600081519050610a2b81610a05565b92915050565b600060208284031215610a4757610a46610613565b5b6000610a5584828501610a1c565b91505092915050565b600081519050919050565b600081905092915050565b60005b83811015610a92578082015181840152602081019050610a77565b60008484015250505050565b6000610aa982610a5e565b610ab38185610a69565b9350610ac3818560208601610a74565b80840191505092915050565b6000610adb8284610a9e565b915081905092915050565b6000602082019050610afb60008301846109a4565b92915050565b600081519050610b1081610627565b92915050565b600060208284031215610b2c57610b2b610613565b5b6000610b3a84828501610b01565b91505092915050565b6000604082019050610b5860008301856109a4565b610b6560208301846109b3565b9392505050565b600081519050919050565b600082825260208201905092915050565b6000610b9382610b6c565b610b9d8185610b77565b9350610bad818560208601610a74565b610bb681610779565b840191505092915050565b60006020820190508181036000830152610bdb8184610b88565b905092915050565b6000604082019050610bf860008301856109b3565b610c0560208301846109b3565b9392505050565b7f4e487b7100000000000000000000000000000000000000000000000000000000600052601260045260246000fd5b6000610c468261061d565b9150610c518361061d565b925082610c6157610c60610c0c565b5b828206905092915050565b600067ffffffffffffffff821115610c8757610c8661078a565b5b610c9082610779565b9050602081019050919050565b6000610cb0610cab84610c6c565b6107ea565b905082815260208101848484011115610ccc57610ccb610848565b5b610cd7848285610a74565b509392505050565b600082601f830112610cf457610cf3610653565b5b8151610d04848260208601610c9d565b91505092915050565b600060208284031215610d2357610d22610613565b5b600082015167ffffffffffffffff811115610d4157610d40610618565b5b610d4d84828501610cdf565b9150509291505056fea2646970667358221220864d888e64196a97f78a1bc11228cfcdc271da906bc26e38b67597b7c1b1b0b764736f6c63430008180033",
  "linkReferences": {},
  "deployedLinkReferences": {}
}